:020000040800F2
:1000000000000120810D0008090D00080F0D0008F7
:10001000150D00081B0D0008210D00080000000050
:10002000000000000000000000000000270D000894
:10003000350D000800000000430D0008510D0008B8
:10004000D10D0008D10D0008D10D0008D10D000818
:10005000D10D0008D10D0008D10D0008D10D000808
:10006000D10D0008D10D0008D10D0008D10D0008F8
:10007000D10D0008D10D0008D10D0008D10D0008E8
:10008000D10D0008D10D0008D10D000800000000BE
:10009000000000000000000000000000D10D00087A
:1000A000D10D0008D10D0008D10D0008D10D0008B8
:1000B000D10D0008D10D0008D10D0008D10D0008A8
:1000C000D10D0008D10D0008D10D0008D10D000898
:1000D000D10D0008D10D0008D10D0008000000006E
:1000E000D10D0008D10D0008D10D0008000000005E
:1000F000000000000000000000000000D10D00081A
:1001000000000000D10D0008D10D0008D10D00083D
:1001100000000000000000000000000000000000DF
:10012000150B0008D10D0008D10D0008D10D0008F5
:10013000D10D0008000000000000000000000000D9
:10014000000000000000000000000000D10D0008C9
:10015000D10D0008D10D0008D10D0008D10D000807
:10016000D10D0008D10D00080000000000000000C3
:10017000000000000000000000000000000000007F
:1001800000000000D10D0008000000000000000089
:04019000D10D000885
:1001940010B5054C237833B9044B13B10448AFF3BD
:1001A40000800123237010BD5400002000000000D3
:1001B400440E000808B5034B1BB103490348AFF3D1
:1001C400008008BD0000000058000020440E000814
:1001D40090B482B000AF0446084611461A4623463E
:1001E400FB710346BB710B467B7113463B715C4B41
:1001F4001B68FA79012101FA02F21146584A0B43AD
:100204001360FA79574913469B001344DB000B44EF
:100214001B681968BB795B00032202FA03F3DB4312
:100224001C46FA794F4813469B001344DB000344F1
:100234001B6801EA04021A60FA794A4913469B00D2
:100244001344DB000B441B6819687A79BB795B00A3
:1002540002FA03F31C46FA79424813469B001344FE
:10026400DB0003441B6841EA04021A60FA793D4941
:1002740013469B001344DB000B4404331B681968CA
:10028400BB79012202FA03F3DB431C46FA793548B1
:1002940013469B001344DB00034404331B6801EA48
:1002A40004021A60FA792F4913469B001344DB00B9
:1002B4000B4404331B6819683B7903F00102BB79D2
:1002C40002FA03F31C46FA79264813469B001344AA
:1002D400DB00034404331B6841EA04021A60FA7920
:1002E400204913469B001344DB000B440C331B686A
:1002F4001968BB795B00032202FA03F3DB431C4653
:10030400FA79184813469B001344DB0003440C336A
:100314001B6801EA04021A60FA79124913469B0029
:100324001344DB000B440C331B6819683B795B10E6
:1003340003F00302BB795B0002FA03F31C46FA796B
:10034400084813469B001344DB0003440C331B682A
:1003540041EA04021A6000BF0837BD4690BC7047EA
:10036400303802400000002090B484B000AF03464F
:10037400FB710B46BB7113467B71FA792C4913460A
:100384009B001344DB000B441B681B68BA795200C2
:10039400032101FA02F21A40BB795B0022FA03F34B
:1003A400012B3DD17B79002B1BD0FA7920491346D0
:1003B4009B001344DB000B4414331B681968BB799E
:1003C400012202FA03F31C46FA79194813469B00EA
:1003D4001344DB00034414331B6841EA04021A602B
:1003E4001BE0FA79124913469B001344DB000B44CB
:1003F40014331B681968BB79012202FA03F3DB4347
:100404001C46FA790A4813469B001344DB00034454
:1004140014331B6801EA04021A600023FB7301E031
:100424000123FB73FB7B18461037BD4690BC704715
:100434000000002080B483B000AF0346FB71FB7959
:10044400012B11D1154B15221A60154B1B68134A49
:100454001268012101FA02F21146114A0B4313609A
:10046400104B114A1A6013E0FB79022B10D10B4B8D
:1004740016221A600A4B1B68084A1268012101FA05
:1004840002F21146064A0B431360064B074A1A60F0
:1004940000BF0C37BD465DF8047B7047C0030020E5
:1004A40030380240CC030020006002400064024067
:1004B40080B485B000AFB9607A603B600346FB73DB
:1004C400FB7B924A1360914B1A6813465B001344FA
:1004D400DB0010338E4A13608E4B1A688C4B1B68FA
:1004E40013441A468C4B1A60884B1A6813465B00F7
:1004F4001344DB002433894A1360864B1A68874B04
:100504001B6813441A46864B1A60804B1B685A1C9E
:1005140013465B001344DB001A46824B1A607D4B82
:100524001A68804B1B6813441A467F4B1A60774B3A
:100534001A6813465B001344DB001C337B4A1360C8
:10054400744B1A68794B1B6813441A46784B1A602B
:100554006E4B1A6813465B001344DB001433754A70
:1005640013606C4B1A68734B1B6813441A46724B26
:100574001A60684B1B6808331A46704B1A60654B47
:100584001B680C331A466E4B1A60624B1B681A4682
:100594006C4B1A605F4B1B6804331A466A4B1A6033
:1005A4005D4B1B681A685C4B1B6822F001021A60E1
:1005B40000BF594B1B681B6803F00103002BF8D1E3
:1005C40097F82830022B0AD0534B1B681A6897F807
:1005D40020305B061946504B1B680A431A604E4B89
:1005E4001B681A6897F824301B0419464A4B1B6889
:1005F4000A431A60484B1B681A6897F828309B0115
:100604001946454B1B680A431A60434B1B681A681A
:100614003B7EDB021946404B1B680A431A603E4B83
:100624001B681A683B7E5B0319463B4B1B680A43F5
:100634001A603B7F022B11D1394B1B681A68384B67
:100644001B6842F004021A60354B1B68196897F85E
:100654002C20334B1B680A431A600AE03B7F032BB0
:1006640007D12F4B1B681A682D4B1B6822F004021C
:100674001A6097F83030012B08D1274B1B681A6891
:10068400254B1B6842F400721A600BE097F8303077
:10069400002B07D1204B1B681A681F4B1B6822F4E0
:1006A40000721A6097F83430012B08D11A4B1B687A
:1006B4001A68194B1B6842F480621A600BE097F8C1
:1006C4003430002B07D1144B1B681A68124B1B687B
:1006D40022F480621A600F4B1B681C4A93420CBFC1
:1006E40001230023DAB2094B1B68072B14BF012333
:1006F4000023DBB21340DBB2002B2BD0034B1B686F
:100704000B3301229A40124B1A6070E0BC030020A4
:10071400AC030020CC030020A0030020B803002079
:10072400D8030020C8030020B0030020A803002041
:10073400D4030020C4030020A4030020B403002039
:1007440070000020740000209C0300200060024020
:1007540000E100E0524B1B68524A93420CBF012354
:100764000023DAB2504B1B68072B0CBF0123002374
:10077400DBB21340DBB2002B04D04C4B4FF40042ED
:100784001A6034E0464B1B68494A93420CBF01236C
:100794000023DAB2444B1B68042B94BF01230023CB
:1007A400DBB21340DBB2002B07D03F4B1B6818337E
:1007B40001229A403D4B1A6019E0394B1B683C4AB0
:1007C40093420CBF01230023DAB2374B1B68052B7D
:1007D4008CBF01230023DBB21340DBB2002B06D015
:1007E400314B1B68013B01229A40324B1A60324B59
:1007F4001B681A68304B1B6842F010021A602E4BBB
:100804001B681A682C4B1B6842F008021A602A4BBA
:100814001B681A68284B1B6842F004021A6097F898
:100824002830002B0CBF01230023DAB297F82830BC
:10083400022B0CBF01230023DBB21343DBB2002BDA
:1008440010D01E4B1B681968BA681C4B1B680A43FE
:100854001A601B4B1B6819687A68194B1B680A439A
:100864001A6013E097F82830012B0FD1144B1B6842
:100874001968BA68124B1B680A431A600F4B1B684D
:1008840019687A680D4B1B680A431A600D4B1B6884
:100894003A681A6000BF1437BD465DF8047B7047A0
:1008A400CC03002000600240BC03002004E100E00F
:1008B4000064024008E100E0A0030020B00300202F
:1008C400D4030020A403002080B400AF5C4B1B6859
:1008D4001B6803F02003002B14D1594B1B681B68C1
:1008E40003F40063002B0DD1554B1B681B6803F404
:1008F4000013002B06D1524B1B681B6803F00063E6
:10090400002B01D0012396E04D4B1B681B6803F0BC
:100914001003002B14D14A4B1B681B6803F480633B
:10092400002B0DD1464B1B681B6803F48013002B6E
:1009340006D1434B1B681B6803F08063002B01D076
:10094400022378E03E4B1B681B6803F00803002B6E
:1009540014D13B4B1B681B6803F40073002B0DD1AF
:10096400374B1B681B6803F40023002B06D1344B60
:100974001B681B6803F00073002B01D003235AE0AB
:10098400304B1B681B6803F02003002B14D12D4B44
:100994001B681B6803F40063002B0DD1294B1B68F3
:1009A4001B6803F40013002B06D1264B1B681B683D
:1009B40003F00063002B01D001233CE0214B1B68B2
:1009C4001B6803F01003002B14D11E4B1B681B681B
:1009D40003F48063002B0DD11A4B1B681B6803F4CE
:1009E4008013002B06D1174B1B681B6803F0806330
:1009F400002B01D002231EE0124B1B681B6803F07E
:100A04000803002B14D10F4B1B681B6803F40073FD
:100A1400002B0DD10B4B1B681B6803F40023002B28
:100A240006D1084B1B681B6803F00073002B01D030
:100A3400032300E000231846BD465DF8047B70479D
:100A4400740000209C03002080B400AF2C4B1B6872
:100A5400002B04D12B4B1B683D221A6043E0284B2A
:100A64001B68012B05D1274B1B684FF474621A6075
:100A740039E0234B1B68022B05D1224B1B684FF432
:100A840074121A602FE01E4B1B68032B05D11D4BFB
:100A94001B684FF074621A6025E0194B1B68042B25
:100AA40004D1194B1B683D221A601CE0144B1B68CF
:100AB400052B05D1144B1B684FF474621A6012E0C5
:100AC4000F4B1B68062B05D10F4B1B684FF4741298
:100AD4001A6008E00A4B1B68072B04D10A4B1B68F9
:100AE4004FF074621A60094B1B681A68074B1B6845
:100AF40042F001021A6000BFBD465DF8047B7047F6
:100B0400BC030020B403002070000020A0030020D8
:100B140080B500AFFFF7D8FE03461A46064B1A709D
:100B2400054B1B78184600F0A5F8034B1B781846B4
:100B340000F004F800BF80BDD003002080B483B06F
:100B440000AF0346FB71FB79032B0CD0032B0DDCA8
:100B5400012B02D0022B03D008E0074B20221A609D
:100B6400054B10221A60044B08221A6000BF0C3790
:100B7400BD465DF8047B70470864024080B58AB0C6
:100B840008AF0023012201210020FFF721FB0023ED
:100B9400012207210020FFF71BFB0023012208216B
:100BA4000020FFF715FB0023012209210020FFF795
:100BB4000FFB00237B6011E07B680133642202FB9E
:100BC40003F31946284A7B6842F82310274A7B68B6
:100BD400002142F823107B6801337B607B68632B20
:100BE400EAD90220FFF726FC012307930123069389
:100BF4000123059302230493032303930023029305
:100C040002230193022300936423184A1649002007
:100C1400FFF74EFCFFF718FF154B1B68012BFBD1A8
:100C240000233B6018E0114A3B6852F823200E4928
:100C34003B6851F823309A4205D10122012100205A
:100C4400FFF792FB05E0002201210020FFF78CFB57
:100C540005E03B6801333B603B68632BE3D9044BFD
:100C640000221A60D8E700BF7800002008020020A4
:100C74009803002080B582B000AF0346FB71FB7976
:100C8400032B29D0032B37DC012B02D0022B13D0EA
:100C940032E0012207210020FFF766FB0022082131
:100CA4000020FFF761FB002209210020FFF75CFB15
:100CB400134B01221A601FE0012208210020FFF7D4
:100CC40053FB002207210020FFF74EFB00220921DD
:100CD4000020FFF749FB0FE0012209210020FFF764
:100CE40043FB002207210020FFF73EFB00220821DE
:100CF4000020FFF739FB00BF00BF0837BD4680BDA9
:100D04009803002080B400AFFEE780B400AFFEE794
:100D140080B400AFFEE780B400AFFEE780B400AF5C
:100D2400FEE780B400AF00BFBD465DF8047B7047AA
:100D340080B400AF00BFBD465DF8047B704780B44B
:100D440000AF00BFBD465DF8047B704780B500AFBF
:100D540000F03EF800BF80BD80B400AF064BD3F86E
:100D64008830054A43F47003C2F8883000BFBD469A
:100D74005DF8047B704700BF00ED00E0DFF834D07D
:100D84000D480E490E4A002302E0D458C4500433DF
:100D9400C4188C42F9D30B4A0B4C002301E01360B6
:100DA4000432A242FBD3FFF7D7FF00F025F8FFF788
:100DB400E5FE7047000001200000002054000020E0
:100DC400640E000854000020E0030020FEE7000049
:100DD40080B400AF064B1B781A46064B1B681344BD
:100DE400044A136000BFBD465DF8047B704700BF32
:100DF40050000020DC03002070B50D4D0D4C641B29
:100E0400A4100026A64209D10B4D0C4C00F018F892
:100E1400641BA4100026A64205D170BD55F8043BFE
:100E240098470136EEE755F8043B98470136F2E758
:100E34005C0E00085C0E00085C0E0008600E0008E2
:100E4400F8B500BFF8BC08BC9E467047F8B500BFB3
:080E5400F8BC08BC9E46704783
:040E5C00B9010008D0
:040E600095010008F0
:100E64000000024004000240080002400C0002405E
:100E74001000024014000240180002401C0002400E
:100E84002000024024000240000402400404024006
:100E9400080402400C0402401004024014040240FE
:100EA400180402401C0402402004024024040240AE
:040EB4000100000039
:0400000508000D8161
:00000001FF
